{
  "_format": "hh-sol-artifact-1",
  "contractName": "CraftBatch721",
  "sourceName": "contracts/CraftBatch721.sol",
  "abi": [
    {
      "inputs": [],
      "stateMutability": "nonpayable",
      "type": "constructor"
    },
    {
      "inputs": [],
      "name": "AccessControlBadConfirmation",
      "type": "error"
    },
    {
      "inputs": [
        {
          "internalType": "address",
          "name": "account",
          "type": "address"
        },
        {
          "internalType": "bytes32",
          "name": "neededRole",
          "type": "bytes32"
        }
      ],
      "name": "AccessControlUnauthorizedAccount",
      "type": "error"
    },
    {
      "inputs": [
        {
          "internalType": "address",
          "name": "sender",
          "type": "address"
        },
        {
          "internalType": "uint256",
          "name": "tokenId",
          "type": "uint256"
        },
        {
          "internalType": "address",
          "name": "owner",
          "type": "address"
        }
      ],
      "name": "ERC721IncorrectOwner",
      "type": "error"
    },
    {
      "inputs": [
        {
          "internalType": "address",
          "name": "operator",
          "type": "address"
        },
        {
          "internalType": "uint256",
          "name": "tokenId",
          "type": "uint256"
        }
      ],
      "name": "ERC721InsufficientApproval",
      "type": "error"
    },
    {
      "inputs": [
        {
          "internalType": "address",
          "name": "approver",
          "type": "address"
        }
      ],
      "name": "ERC721InvalidApprover",
      "type": "error"
    },
    {
      "inputs": [
        {
          "internalType": "address",
          "name": "operator",
          "type": "address"
        }
      ],
      "name": "ERC721InvalidOperator",
      "type": "error"
    },
    {
      "inputs": [
        {
          "internalType": "address",
          "name": "owner",
          "type": "address"
        }
      ],
      "name": "ERC721InvalidOwner",
      "type": "error"
    },
    {
      "inputs": [
        {
          "internalType": "address",
          "name": "receiver",
          "type": "address"
        }
      ],
      "name": "ERC721InvalidReceiver",
      "type": "error"
    },
    {
      "inputs": [
        {
          "internalType": "address",
          "name": "sender",
          "type": "address"
        }
      ],
      "name": "ERC721InvalidSender",
      "type": "error"
    },
    {
      "inputs": [
        {
          "internalType": "uint256",
          "name": "tokenId",
          "type": "uint256"
        }
      ],
      "name": "ERC721NonexistentToken",
      "type": "error"
    },
    {
      "anonymous": false,
      "inputs": [
        {
          "indexed": true,
          "internalType": "address",
          "name": "owner",
          "type": "address"
        },
        {
          "indexed": true,
          "internalType": "address",
          "name": "approved",
          "type": "address"
        },
        {
          "indexed": true,
          "internalType": "uint256",
          "name": "tokenId",
          "type": "uint256"
        }
      ],
      "name": "Approval",
      "type": "event"
    },
    {
      "anonymous": false,
      "inputs": [
        {
          "indexed": true,
          "internalType": "address",
          "name": "owner",
          "type": "address"
        },
        {
          "indexed": true,
          "internalType": "address",
          "name": "operator",
          "type": "address"
        },
        {
          "indexed": false,
          "internalType": "bool",
          "name": "approved",
          "type": "bool"
        }
      ],
      "name": "ApprovalForAll",
      "type": "event"
    },
    {
      "anonymous": false,
      "inputs": [
        {
          "indexed": false,
          "internalType": "uint256",
          "name": "_fromTokenId",
          "type": "uint256"
        },
        {
          "indexed": false,
          "internalType": "uint256",
          "name": "_toTokenId",
          "type": "uint256"
        }
      ],
      "name": "BatchMetadataUpdate",
      "type": "event"
    },
    {
      "anonymous": false,
      "inputs": [
        {
          "indexed": false,
          "internalType": "uint256",
          "name": "_tokenId",
          "type": "uint256"
        }
      ],
      "name": "MetadataUpdate",
      "type": "event"
    },
    {
      "anonymous": false,
      "inputs": [
        {
          "indexed": true,
          "internalType": "bytes32",
          "name": "role",
          "type": "bytes32"
        },
        {
          "indexed": true,
          "internalType": "bytes32",
          "name": "previousAdminRole",
          "type": "bytes32"
        },
        {
          "indexed": true,
          "internalType": "bytes32",
          "name": "newAdminRole",
          "type": "bytes32"
        }
      ],
      "name": "RoleAdminChanged",
      "type": "event"
    },
    {
      "anonymous": false,
      "inputs": [
        {
          "indexed": true,
          "internalType": "bytes32",
          "name": "role",
          "type": "bytes32"
        },
        {
          "indexed": true,
          "internalType": "address",
          "name": "account",
          "type": "address"
        },
        {
          "indexed": true,
          "internalType": "address",
          "name": "sender",
          "type": "address"
        }
      ],
      "name": "RoleGranted",
      "type": "event"
    },
    {
      "anonymous": false,
      "inputs": [
        {
          "indexed": true,
          "internalType": "bytes32",
          "name": "role",
          "type": "bytes32"
        },
        {
          "indexed": true,
          "internalType": "address",
          "name": "account",
          "type": "address"
        },
        {
          "indexed": true,
          "internalType": "address",
          "name": "sender",
          "type": "address"
        }
      ],
      "name": "RoleRevoked",
      "type": "event"
    },
    {
      "anonymous": false,
      "inputs": [
        {
          "indexed": true,
          "internalType": "uint256",
          "name": "tokenId",
          "type": "uint256"
        },
        {
          "indexed": true,
          "internalType": "address",
          "name": "actor",
          "type": "address"
        },
        {
          "indexed": false,
          "internalType": "string",
          "name": "stepDataHash",
          "type": "string"
        },
        {
          "indexed": false,
          "internalType": "uint256",
          "name": "timestamp",
          "type": "uint256"
        }
      ],
      "name": "StepRecorded",
      "type": "event"
    },
    {
      "anonymous": false,
      "inputs": [
        {
          "indexed": true,
          "internalType": "address",
          "name": "from",
          "type": "address"
        },
        {
          "indexed": true,
          "internalType": "address",
          "name": "to",
          "type": "address"
        },
        {
          "indexed": true,
          "internalType": "uint256",
          "name": "tokenId",
          "type": "uint256"
        }
      ],
      "name": "Transfer",
      "type": "event"
    },
    {
      "inputs": [],
      "name": "DEFAULT_ADMIN_ROLE",
      "outputs": [
        {
          "internalType": "bytes32",
          "name": "",
          "type": "bytes32"
        }
      ],
      "stateMutability": "view",
      "type": "function"
    },
    {
      "inputs": [],
      "name": "MINTER_ROLE",
      "outputs": [
        {
          "internalType": "bytes32",
          "name": "",
          "type": "bytes32"
        }
      ],
      "stateMutability": "view",
      "type": "function"
    },
    {
      "inputs": [
        {
          "internalType": "address",
          "name": "to",
          "type": "address"
        },
        {
          "internalType": "uint256",
          "name": "tokenId",
          "type": "uint256"
        }
      ],
      "name": "approve",
      "outputs": [],
      "stateMutability": "nonpayable",
      "type": "function"
    },
    {
      "inputs": [
        {
          "internalType": "address",
          "name": "owner",
          "type": "address"
        }
      ],
      "name": "balanceOf",
      "outputs": [
        {
          "internalType": "uint256",
          "name": "",
          "type": "uint256"
        }
      ],
      "stateMutability": "view",
      "type": "function"
    },
    {
      "inputs": [
        {
          "internalType": "uint256",
          "name": "tokenId",
          "type": "uint256"
        }
      ],
      "name": "getApproved",
      "outputs": [
        {
          "internalType": "address",
          "name": "",
          "type": "address"
        }
      ],
      "stateMutability": "view",
      "type": "function"
    },
    {
      "inputs": [
        {
          "internalType": "bytes32",
          "name": "role",
          "type": "bytes32"
        }
      ],
      "name": "getRoleAdmin",
      "outputs": [
        {
          "internalType": "bytes32",
          "name": "",
          "type": "bytes32"
        }
      ],
      "stateMutability": "view",
      "type": "function"
    },
    {
      "inputs": [
        {
          "internalType": "bytes32",
          "name": "role",
          "type": "bytes32"
        },
        {
          "internalType": "address",
          "name": "account",
          "type": "address"
        }
      ],
      "name": "grantRole",
      "outputs": [],
      "stateMutability": "nonpayable",
      "type": "function"
    },
    {
      "inputs": [
        {
          "internalType": "bytes32",
          "name": "role",
          "type": "bytes32"
        },
        {
          "internalType": "address",
          "name": "account",
          "type": "address"
        }
      ],
      "name": "hasRole",
      "outputs": [
        {
          "internalType": "bool",
          "name": "",
          "type": "bool"
        }
      ],
      "stateMutability": "view",
      "type": "function"
    },
    {
      "inputs": [
        {
          "internalType": "address",
          "name": "owner",
          "type": "address"
        },
        {
          "internalType": "address",
          "name": "operator",
          "type": "address"
        }
      ],
      "name": "isApprovedForAll",
      "outputs": [
        {
          "internalType": "bool",
          "name": "",
          "type": "bool"
        }
      ],
      "stateMutability": "view",
      "type": "function"
    },
    {
      "inputs": [
        {
          "internalType": "address",
          "name": "to",
          "type": "address"
        },
        {
          "internalType": "string",
          "name": "uri",
          "type": "string"
        }
      ],
      "name": "mint",
      "outputs": [
        {
          "internalType": "uint256",
          "name": "",
          "type": "uint256"
        }
      ],
      "stateMutability": "nonpayable",
      "type": "function"
    },
    {
      "inputs": [],
      "name": "name",
      "outputs": [
        {
          "internalType": "string",
          "name": "",
          "type": "string"
        }
      ],
      "stateMutability": "view",
      "type": "function"
    },
    {
      "inputs": [
        {
          "internalType": "uint256",
          "name": "tokenId",
          "type": "uint256"
        }
      ],
      "name": "ownerOf",
      "outputs": [
        {
          "internalType": "address",
          "name": "",
          "type": "address"
        }
      ],
      "stateMutability": "view",
      "type": "function"
    },
    {
      "inputs": [
        {
          "internalType": "uint256",
          "name": "tokenId",
          "type": "uint256"
        },
        {
          "internalType": "string",
          "name": "stepDataHash",
          "type": "string"
        }
      ],
      "name": "recordStep",
      "outputs": [],
      "stateMutability": "nonpayable",
      "type": "function"
    },
    {
      "inputs": [
        {
          "internalType": "bytes32",
          "name": "role",
          "type": "bytes32"
        },
        {
          "internalType": "address",
          "name": "callerConfirmation",
          "type": "address"
        }
      ],
      "name": "renounceRole",
      "outputs": [],
      "stateMutability": "nonpayable",
      "type": "function"
    },
    {
      "inputs": [
        {
          "internalType": "bytes32",
          "name": "role",
          "type": "bytes32"
        },
        {
          "internalType": "address",
          "name": "account",
          "type": "address"
        }
      ],
      "name": "revokeRole",
      "outputs": [],
      "stateMutability": "nonpayable",
      "type": "function"
    },
    {
      "inputs": [
        {
          "internalType": "address",
          "name": "from",
          "type": "address"
        },
        {
          "internalType": "address",
          "name": "to",
          "type": "address"
        },
        {
          "internalType": "uint256",
          "name": "tokenId",
          "type": "uint256"
        }
      ],
      "name": "safeTransferFrom",
      "outputs": [],
      "stateMutability": "nonpayable",
      "type": "function"
    },
    {
      "inputs": [
        {
          "internalType": "address",
          "name": "from",
          "type": "address"
        },
        {
          "internalType": "address",
          "name": "to",
          "type": "address"
        },
        {
          "internalType": "uint256",
          "name": "tokenId",
          "type": "uint256"
        },
        {
          "internalType": "bytes",
          "name": "data",
          "type": "bytes"
        }
      ],
      "name": "safeTransferFrom",
      "outputs": [],
      "stateMutability": "nonpayable",
      "type": "function"
    },
    {
      "inputs": [
        {
          "internalType": "address",
          "name": "operator",
          "type": "address"
        },
        {
          "internalType": "bool",
          "name": "approved",
          "type": "bool"
        }
      ],
      "name": "setApprovalForAll",
      "outputs": [],
      "stateMutability": "nonpayable",
      "type": "function"
    },
    {
      "inputs": [
        {
          "internalType": "bytes4",
          "name": "interfaceId",
          "type": "bytes4"
        }
      ],
      "name": "supportsInterface",
      "outputs": [
        {
          "internalType": "bool",
          "name": "",
          "type": "bool"
        }
      ],
      "stateMutability": "view",
      "type": "function"
    },
    {
      "inputs": [],
      "name": "symbol",
      "outputs": [
        {
          "internalType": "string",
          "name": "",
          "type": "string"
        }
      ],
      "stateMutability": "view",
      "type": "function"
    },
    {
      "inputs": [
        {
          "internalType": "uint256",
          "name": "tokenId",
          "type": "uint256"
        }
      ],
      "name": "tokenURI",
      "outputs": [
        {
          "internalType": "string",
          "name": "",
          "type": "string"
        }
      ],
      "stateMutability": "view",
      "type": "function"
    },
    {
      "inputs": [
        {
          "internalType": "address",
          "name": "from",
          "type": "address"
        },
        {
          "internalType": "address",
          "name": "to",
          "type": "address"
        },
        {
          "internalType": "uint256",
          "name": "tokenId",
          "type": "uint256"
        }
      ],
      "name": "transferFrom",
      "outputs": [],
      "stateMutability": "nonpayable",
      "type": "function"
    }
  ],
  "bytecode": "0x60806040523480156200001157600080fd5b506040518060400160405280600a81526020017f43726166744261746368000000000000000000000000000000000000000000008152506040518060400160405280600581526020017f435241465400000000000000000000000000000000000000000000000000000081525081600090816200008f9190620004e4565b508060019081620000a19190620004e4565b505050620000b96000801b33620000f360201b60201c565b50620000ec7f9f2df0fed2c77648de5860a4cc508cd0818c85b8b8a1ab4ceeef8d981c8956a633620000f360201b60201c565b50620005cb565b6000620001078383620001f760201b60201c565b620001ec5760016007600085815260200190815260200160002060000160008473ffffffffffffffffffffffffffffffffffffffff1673ffffffffffffffffffffffffffffffffffffffff16815260200190815260200160002060006101000a81548160ff021916908315150217905550620001886200026260201b60201c565b73ffffffffffffffffffffffffffffffffffffffff168273ffffffffffffffffffffffffffffffffffffffff16847f2f8788117e7eff1d82e926ec794901d17c78024a50270940304540a733656f0d60405160405180910390a460019050620001f1565b600090505b92915050565b60006007600084815260200190815260200160002060000160008373ffffffffffffffffffffffffffffffffffffffff1673ffffffffffffffffffffffffffffffffffffffff16815260200190815260200160002060009054906101000a900460ff16905092915050565b600033905090565b600081519050919050565b7f4e487b7100000000000000000000000000000000000000000000000000000000600052604160045260246000fd5b7f4e487b7100000000000000000000000000000000000000000000000000000000600052602260045260246000fd5b60006002820490506001821680620002ec57607f821691505b602082108103620003025762000301620002a4565b5b50919050565b60008190508160005260206000209050919050565b60006020601f8301049050919050565b600082821b905092915050565b6000600883026200036c7fffffffffffffffffffffffffffffffffffffffffffffffffffffffffffffffff826200032d565b6200037886836200032d565b95508019841693508086168417925050509392505050565b6000819050919050565b6000819050919050565b6000620003c5620003bf620003b98462000390565b6200039a565b62000390565b9050919050565b6000819050919050565b620003e183620003a4565b620003f9620003f082620003cc565b8484546200033a565b825550505050565b600090565b6200041062000401565b6200041d818484620003d6565b505050565b5b8181101562000445576200043960008262000406565b60018101905062000423565b5050565b601f82111562000494576200045e8162000308565b62000469846200031d565b8101602085101562000479578190505b6200049162000488856200031d565b83018262000422565b50505b505050565b600082821c905092915050565b6000620004b96000198460080262000499565b1980831691505092915050565b6000620004d48383620004a6565b9150826002028217905092915050565b620004ef826200026a565b67ffffffffffffffff8111156200050b576200050a62000275565b5b620005178254620002d3565b6200052482828562000449565b600060209050601f8311600181146200055c576000841562000547578287015190505b620005538582620004c6565b865550620005c3565b601f1984166200056c8662000308565b60005b8281101562000596578489015182556001820191506020850194506020810190506200056f565b86831015620005b65784890151620005b2601f891682620004a6565b8355505b6001600288020188555050505b505050505050565b612ca680620005db6000396000f3fe608060405234801561001057600080fd5b50600436106101425760003560e01c806391d14854116100b8578063bc5e8cd71161007c578063bc5e8cd714610385578063c87b56dd146103a1578063d0def521146103d1578063d539139314610401578063d547741f1461041f578063e985e9c51461043b57610142565b806391d14854146102e157806395d89b4114610311578063a217fddf1461032f578063a22cb4651461034d578063b88d4fde1461036957610142565b8063248a9ca31161010a578063248a9ca3146101fd5780632f2ff15d1461022d57806336568abe1461024957806342842e0e146102655780636352211e1461028157806370a08231146102b157610142565b806301ffc9a71461014757806306fdde0314610177578063081812fc14610195578063095ea7b3146101c557806323b872dd146101e1575b600080fd5b610161600480360381019061015c9190611f10565b61046b565b60405161016e9190611f58565b60405180910390f35b61017f61047d565b60405161018c9190612003565b60405180910390f35b6101af60048036038101906101aa919061205b565b61050f565b6040516101bc91906120c9565b60405180910390f35b6101df60048036038101906101da9190612110565b61052b565b005b6101fb60048036038101906101f69190612150565b610541565b005b610217600480360381019061021291906121d9565b610643565b6040516102249190612215565b60405180910390f35b61024760048036038101906102429190612230565b610663565b005b610263600480360381019061025e9190612230565b610685565b005b61027f600480360381019061027a9190612150565b610700565b005b61029b6004803603810190610296919061205b565b610720565b6040516102a891906120c9565b60405180910390f35b6102cb60048036038101906102c69190612270565b610732565b6040516102d891906122ac565b60405180910390f35b6102fb60048036038101906102f69190612230565b6107ec565b6040516103089190611f58565b60405180910390f35b610319610857565b6040516103269190612003565b60405180910390f35b6103376108e9565b6040516103449190612215565b60405180910390f35b610367600480360381019061036291906122f3565b6108f0565b005b610383600480360381019061037e9190612468565b610906565b005b61039f600480360381019061039a919061258c565b61092b565b005b6103bb60048036038101906103b6919061205b565b6109f6565b6040516103c89190612003565b60405180910390f35b6103eb60048036038101906103e691906125e8565b610a08565b6040516103f891906122ac565b60405180910390f35b610409610a6e565b6040516104169190612215565b60405180910390f35b61043960048036038101906104349190612230565b610a92565b005b61045560048036038101906104509190612644565b610ab4565b6040516104629190611f58565b60405180910390f35b600061047682610b48565b9050919050565b60606000805461048c906126b3565b80601f01602080910402602001604051908101604052809291908181526020018280546104b8906126b3565b80156105055780601f106104da57610100808354040283529160200191610505565b820191906000526020600020905b8154815290600101906020018083116104e857829003601f168201915b5050505050905090565b600061051a82610bc2565b5061052482610c4a565b9050919050565b61053d8282610538610c87565b610c8f565b5050565b600073ffffffffffffffffffffffffffffffffffffffff168273ffffffffffffffffffffffffffffffffffffffff16036105b35760006040517f64a0ae920000000000000000000000000000000000000000000000000000000081526004016105aa91906120c9565b60405180910390fd5b60006105c783836105c2610c87565b610ca1565b90508373ffffffffffffffffffffffffffffffffffffffff168173ffffffffffffffffffffffffffffffffffffffff161461063d578382826040517f64283d7b000000000000000000000000000000000000000000000000000000008152600401610634939291906126e4565b60405180910390fd5b50505050565b600060076000838152602001908152602001600020600101549050919050565b61066c82610643565b61067581610ebb565b61067f8383610ecf565b50505050565b61068d610c87565b73ffffffffffffffffffffffffffffffffffffffff168173ffffffffffffffffffffffffffffffffffffffff16146106f1576040517f6697b23200000000000000000000000000000000000000000000000000000000815260040160405180910390fd5b6106fb8282610fc1565b505050565b61071b83838360405180602001604052806000815250610906565b505050565b600061072b82610bc2565b9050919050565b60008073ffffffffffffffffffffffffffffffffffffffff168273ffffffffffffffffffffffffffffffffffffffff16036107a55760006040517f89c62b6400000000000000000000000000000000000000000000000000000000815260040161079c91906120c9565b60405180910390fd5b600360008373ffffffffffffffffffffffffffffffffffffffff1673ffffffffffffffffffffffffffffffffffffffff168152602001908152602001600020549050919050565b60006007600084815260200190815260200160002060000160008373ffffffffffffffffffffffffffffffffffffffff1673ffffffffffffffffffffffffffffffffffffffff16815260200190815260200160002060009054906101000a900460ff16905092915050565b606060018054610866906126b3565b80601f0160208091040260200160405190810160405280929190818152602001828054610892906126b3565b80156108df5780601f106108b4576101008083540402835291602001916108df565b820191906000526020600020905b8154815290600101906020018083116108c257829003601f168201915b5050505050905090565b6000801b81565b6109026108fb610c87565b83836110b4565b5050565b610911848484610541565b61092561091c610c87565b85858585611223565b50505050565b3373ffffffffffffffffffffffffffffffffffffffff1661094b83610720565b73ffffffffffffffffffffffffffffffffffffffff16146109a1576040517f08c379a000000000000000000000000000000000000000000000000000000000815260040161099890612767565b60405180910390fd5b3373ffffffffffffffffffffffffffffffffffffffff16827fcd23087cd6b355242c278969296b3a86b6e8a9f631b493ba289a96f01951305c83426040516109ea929190612787565b60405180910390a35050565b6060610a01826113d4565b9050919050565b60007f9f2df0fed2c77648de5860a4cc508cd0818c85b8b8a1ab4ceeef8d981c8956a6610a3481610ebb565b600060086000815480929190610a49906127e6565b919050559050610a5985826114e7565b610a638185611505565b809250505092915050565b7f9f2df0fed2c77648de5860a4cc508cd0818c85b8b8a1ab4ceeef8d981c8956a681565b610a9b82610643565b610aa481610ebb565b610aae8383610fc1565b50505050565b6000600560008473ffffffffffffffffffffffffffffffffffffffff1673ffffffffffffffffffffffffffffffffffffffff16815260200190815260200160002060008373ffffffffffffffffffffffffffffffffffffffff1673ffffffffffffffffffffffffffffffffffffffff16815260200190815260200160002060009054906101000a900460ff16905092915050565b60007f7965db0b000000000000000000000000000000000000000000000000000000007bffffffffffffffffffffffffffffffffffffffffffffffffffffffff1916827bffffffffffffffffffffffffffffffffffffffffffffffffffffffff19161480610bbb5750610bba82611561565b5b9050919050565b600080610bce836115c2565b9050600073ffffffffffffffffffffffffffffffffffffffff168173ffffffffffffffffffffffffffffffffffffffff1603610c4157826040517f7e273289000000000000000000000000000000000000000000000000000000008152600401610c3891906122ac565b60405180910390fd5b80915050919050565b60006004600083815260200190815260200160002060009054906101000a900473ffffffffffffffffffffffffffffffffffffffff169050919050565b600033905090565b610c9c83838360016115ff565b505050565b600080610cad846115c2565b9050600073ffffffffffffffffffffffffffffffffffffffff168373ffffffffffffffffffffffffffffffffffffffff1614610cef57610cee8184866117c4565b5b600073ffffffffffffffffffffffffffffffffffffffff168173ffffffffffffffffffffffffffffffffffffffff1614610d8057610d316000856000806115ff565b6001600360008373ffffffffffffffffffffffffffffffffffffffff1673ffffffffffffffffffffffffffffffffffffffff168152602001908152602001600020600082825403925050819055505b600073ffffffffffffffffffffffffffffffffffffffff168573ffffffffffffffffffffffffffffffffffffffff1614610e03576001600360008773ffffffffffffffffffffffffffffffffffffffff1673ffffffffffffffffffffffffffffffffffffffff168152602001908152602001600020600082825401925050819055505b846002600086815260200190815260200160002060006101000a81548173ffffffffffffffffffffffffffffffffffffffff021916908373ffffffffffffffffffffffffffffffffffffffff160217905550838573ffffffffffffffffffffffffffffffffffffffff168273ffffffffffffffffffffffffffffffffffffffff167fddf252ad1be2c89b69c2b068fc378daa952ba7f163c4a11628f55a4df523b3ef60405160405180910390a4809150509392505050565b610ecc81610ec7610c87565b611888565b50565b6000610edb83836107ec565b610fb65760016007600085815260200190815260200160002060000160008473ffffffffffffffffffffffffffffffffffffffff1673ffffffffffffffffffffffffffffffffffffffff16815260200190815260200160002060006101000a81548160ff021916908315150217905550610f53610c87565b73ffffffffffffffffffffffffffffffffffffffff168273ffffffffffffffffffffffffffffffffffffffff16847f2f8788117e7eff1d82e926ec794901d17c78024a50270940304540a733656f0d60405160405180910390a460019050610fbb565b600090505b92915050565b6000610fcd83836107ec565b156110a95760006007600085815260200190815260200160002060000160008473ffffffffffffffffffffffffffffffffffffffff1673ffffffffffffffffffffffffffffffffffffffff16815260200190815260200160002060006101000a81548160ff021916908315150217905550611046610c87565b73ffffffffffffffffffffffffffffffffffffffff168273ffffffffffffffffffffffffffffffffffffffff16847ff6391f5c32d9c69d2a47ea670b442974b53935d1edc7fd64eb21e047a839171b60405160405180910390a4600190506110ae565b600090505b92915050565b600073ffffffffffffffffffffffffffffffffffffffff168273ffffffffffffffffffffffffffffffffffffffff160361112557816040517f5b08ba1800000000000000000000000000000000000000000000000000000000815260040161111c91906120c9565b60405180910390fd5b80600560008573ffffffffffffffffffffffffffffffffffffffff1673ffffffffffffffffffffffffffffffffffffffff16815260200190815260200160002060008473ffffffffffffffffffffffffffffffffffffffff1673ffffffffffffffffffffffffffffffffffffffff16815260200190815260200160002060006101000a81548160ff0219169083151502179055508173ffffffffffffffffffffffffffffffffffffffff168373ffffffffffffffffffffffffffffffffffffffff167f17307eab39ab6107e8899845ad3d59bd9653f200f220920489ca2b5937696c31836040516112169190611f58565b60405180910390a3505050565b60008373ffffffffffffffffffffffffffffffffffffffff163b11156113cd578273ffffffffffffffffffffffffffffffffffffffff1663150b7a02868685856040518563ffffffff1660e01b81526004016112829493929190612883565b6020604051808303816000875af19250505080156112be57506040513d601f19601f820116820180604052508101906112bb91906128e4565b60015b611342573d80600081146112ee576040519150601f19603f3d011682016040523d82523d6000602084013e6112f3565b606091505b50600081510361133a57836040517f64a0ae9200000000000000000000000000000000000000000000000000000000815260040161133191906120c9565b60405180910390fd5b805160208201fd5b63150b7a0260e01b7bffffffffffffffffffffffffffffffffffffffffffffffffffffffff1916817bffffffffffffffffffffffffffffffffffffffffffffffffffffffff1916146113cb57836040517f64a0ae920000000000000000000000000000000000000000000000000000000081526004016113c291906120c9565b60405180910390fd5b505b5050505050565b60606113df82610bc2565b506000600660008481526020019081526020016000208054611400906126b3565b80601f016020809104026020016040519081016040528092919081815260200182805461142c906126b3565b80156114795780601f1061144e57610100808354040283529160200191611479565b820191906000526020600020905b81548152906001019060200180831161145c57829003601f168201915b50505050509050600061148a6118d9565b9050600081510361149f5781925050506114e2565b6000825111156114d45780826040516020016114bc92919061294d565b604051602081830303815290604052925050506114e2565b6114dd846118f0565b925050505b919050565b611501828260405180602001604052806000815250611959565b5050565b806006600084815260200190815260200160002090816115259190612b1d565b507ff8e1a15aba9398e019f0b49df1a4fde98ee17ae345cb5f6b5e2c27f5033e8ce78260405161155591906122ac565b60405180910390a15050565b6000634906490660e01b7bffffffffffffffffffffffffffffffffffffffffffffffffffffffff1916827bffffffffffffffffffffffffffffffffffffffffffffffffffffffff191614806115bb57506115ba8261197d565b5b9050919050565b60006002600083815260200190815260200160002060009054906101000a900473ffffffffffffffffffffffffffffffffffffffff169050919050565b80806116385750600073ffffffffffffffffffffffffffffffffffffffff168273ffffffffffffffffffffffffffffffffffffffff1614155b1561176c57600061164884610bc2565b9050600073ffffffffffffffffffffffffffffffffffffffff168373ffffffffffffffffffffffffffffffffffffffff16141580156116b357508273ffffffffffffffffffffffffffffffffffffffff168173ffffffffffffffffffffffffffffffffffffffff1614155b80156116c657506116c48184610ab4565b155b1561170857826040517fa9fbf51f0000000000000000000000000000000000000000000000000000000081526004016116ff91906120c9565b60405180910390fd5b811561176a57838573ffffffffffffffffffffffffffffffffffffffff168273ffffffffffffffffffffffffffffffffffffffff167f8c5be1e5ebec7d5bd14f71427d1e84f3dd0314c0f7b2291e5b200ac8c7c3b92560405160405180910390a45b505b836004600085815260200190815260200160002060006101000a81548173ffffffffffffffffffffffffffffffffffffffff021916908373ffffffffffffffffffffffffffffffffffffffff16021790555050505050565b6117cf838383611a5f565b61188357600073ffffffffffffffffffffffffffffffffffffffff168373ffffffffffffffffffffffffffffffffffffffff160361184457806040517f7e27328900000000000000000000000000000000000000000000000000000000815260040161183b91906122ac565b60405180910390fd5b81816040517f177e802f00000000000000000000000000000000000000000000000000000000815260040161187a929190612bef565b60405180910390fd5b505050565b61189282826107ec565b6118d55780826040517fe2517d3f0000000000000000000000000000000000000000000000000000000081526004016118cc929190612c18565b60405180910390fd5b5050565b606060405180602001604052806000815250905090565b60606118fb82610bc2565b5060006119066118d9565b905060008151116119265760405180602001604052806000815250611951565b8061193084611b20565b60405160200161194192919061294d565b6040516020818303038152906040525b915050919050565b6119638383611bee565b61197861196e610c87565b6000858585611223565b505050565b60007f80ac58cd000000000000000000000000000000000000000000000000000000007bffffffffffffffffffffffffffffffffffffffffffffffffffffffff1916827bffffffffffffffffffffffffffffffffffffffffffffffffffffffff19161480611a4857507f5b5e139f000000000000000000000000000000000000000000000000000000007bffffffffffffffffffffffffffffffffffffffffffffffffffffffff1916827bffffffffffffffffffffffffffffffffffffffffffffffffffffffff1916145b80611a585750611a5782611ce7565b5b9050919050565b60008073ffffffffffffffffffffffffffffffffffffffff168373ffffffffffffffffffffffffffffffffffffffff1614158015611b1757508273ffffffffffffffffffffffffffffffffffffffff168473ffffffffffffffffffffffffffffffffffffffff161480611ad85750611ad78484610ab4565b5b80611b1657508273ffffffffffffffffffffffffffffffffffffffff16611afe83610c4a565b73ffffffffffffffffffffffffffffffffffffffff16145b5b90509392505050565b606060006001611b2f84611d51565b01905060008167ffffffffffffffff811115611b4e57611b4d61233d565b5b6040519080825280601f01601f191660200182016040528015611b805781602001600182028036833780820191505090505b509050600082602083010190505b600115611be3578080600190039150507f3031323334353637383961626364656600000000000000000000000000000000600a86061a8153600a8581611bd757611bd6612c41565b5b04945060008503611b8e575b819350505050919050565b600073ffffffffffffffffffffffffffffffffffffffff168273ffffffffffffffffffffffffffffffffffffffff1603611c605760006040517f64a0ae92000000000000000000000000000000000000000000000000000000008152600401611c5791906120c9565b60405180910390fd5b6000611c6e83836000610ca1565b9050600073ffffffffffffffffffffffffffffffffffffffff168173ffffffffffffffffffffffffffffffffffffffff1614611ce25760006040517f73c6ac6e000000000000000000000000000000000000000000000000000000008152600401611cd991906120c9565b60405180910390fd5b505050565b60007f01ffc9a7000000000000000000000000000000000000000000000000000000007bffffffffffffffffffffffffffffffffffffffffffffffffffffffff1916827bffffffffffffffffffffffffffffffffffffffffffffffffffffffff1916149050919050565b600080600090507a184f03e93ff9f4daa797ed6e38ed64bf6a1f0100000000000000008310611daf577a184f03e93ff9f4daa797ed6e38ed64bf6a1f0100000000000000008381611da557611da4612c41565b5b0492506040810190505b6d04ee2d6d415b85acef81000000008310611dec576d04ee2d6d415b85acef81000000008381611de257611de1612c41565b5b0492506020810190505b662386f26fc100008310611e1b57662386f26fc100008381611e1157611e10612c41565b5b0492506010810190505b6305f5e1008310611e44576305f5e1008381611e3a57611e39612c41565b5b0492506008810190505b6127108310611e69576127108381611e5f57611e5e612c41565b5b0492506004810190505b60648310611e8c5760648381611e8257611e81612c41565b5b0492506002810190505b600a8310611e9b576001810190505b80915050919050565b6000604051905090565b600080fd5b600080fd5b60007fffffffff0000000000000000000000000000000000000000000000000000000082169050919050565b611eed81611eb8565b8114611ef857600080fd5b50565b600081359050611f0a81611ee4565b92915050565b600060208284031215611f2657611f25611eae565b5b6000611f3484828501611efb565b91505092915050565b60008115159050919050565b611f5281611f3d565b82525050565b6000602082019050611f6d6000830184611f49565b92915050565b600081519050919050565b600082825260208201905092915050565b60005b83811015611fad578082015181840152602081019050611f92565b60008484015250505050565b6000601f19601f8301169050919050565b6000611fd582611f73565b611fdf8185611f7e565b9350611fef818560208601611f8f565b611ff881611fb9565b840191505092915050565b6000602082019050818103600083015261201d8184611fca565b905092915050565b6000819050919050565b61203881612025565b811461204357600080fd5b50565b6000813590506120558161202f565b92915050565b60006020828403121561207157612070611eae565b5b600061207f84828501612046565b91505092915050565b600073ffffffffffffffffffffffffffffffffffffffff82169050919050565b60006120b382612088565b9050919050565b6120c3816120a8565b82525050565b60006020820190506120de60008301846120ba565b92915050565b6120ed816120a8565b81146120f857600080fd5b50565b60008135905061210a816120e4565b92915050565b6000806040838503121561212757612126611eae565b5b6000612135858286016120fb565b925050602061214685828601612046565b9150509250929050565b60008060006060848603121561216957612168611eae565b5b6000612177868287016120fb565b9350506020612188868287016120fb565b925050604061219986828701612046565b9150509250925092565b6000819050919050565b6121b6816121a3565b81146121c157600080fd5b50565b6000813590506121d3816121ad565b92915050565b6000602082840312156121ef576121ee611eae565b5b60006121fd848285016121c4565b91505092915050565b61220f816121a3565b82525050565b600060208201905061222a6000830184612206565b92915050565b6000806040838503121561224757612246611eae565b5b6000612255858286016121c4565b9250506020612266858286016120fb565b9150509250929050565b60006020828403121561228657612285611eae565b5b6000612294848285016120fb565b91505092915050565b6122a681612025565b82525050565b60006020820190506122c1600083018461229d565b92915050565b6122d081611f3d565b81146122db57600080fd5b50565b6000813590506122ed816122c7565b92915050565b6000806040838503121561230a57612309611eae565b5b6000612318858286016120fb565b9250506020612329858286016122de565b9150509250929050565b600080fd5b600080fd5b7f4e487b7100000000000000000000000000000000000000000000000000000000600052604160045260246000fd5b61237582611fb9565b810181811067ffffffffffffffff821117156123945761239361233d565b5b80604052505050565b60006123a7611ea4565b90506123b3828261236c565b919050565b600067ffffffffffffffff8211156123d3576123d261233d565b5b6123dc82611fb9565b9050602081019050919050565b82818337600083830152505050565b600061240b612406846123b8565b61239d565b90508281526020810184848401111561242757612426612338565b5b6124328482856123e9565b509392505050565b600082601f83011261244f5761244e612333565b5b813561245f8482602086016123f8565b91505092915050565b6000806000806080858703121561248257612481611eae565b5b6000612490878288016120fb565b94505060206124a1878288016120fb565b93505060406124b287828801612046565b925050606085013567ffffffffffffffff8111156124d3576124d2611eb3565b5b6124df8782880161243a565b91505092959194509250565b600067ffffffffffffffff8211156125065761250561233d565b5b61250f82611fb9565b9050602081019050919050565b600061252f61252a846124eb565b61239d565b90508281526020810184848401111561254b5761254a612338565b5b6125568482856123e9565b509392505050565b600082601f83011261257357612572612333565b5b813561258384826020860161251c565b91505092915050565b600080604083850312156125a3576125a2611eae565b5b60006125b185828601612046565b925050602083013567ffffffffffffffff8111156125d2576125d1611eb3565b5b6125de8582860161255e565b9150509250929050565b600080604083850312156125ff576125fe611eae565b5b600061260d858286016120fb565b925050602083013567ffffffffffffffff81111561262e5761262d611eb3565b5b61263a8582860161255e565b9150509250929050565b6000806040838503121561265b5761265a611eae565b5b6000612669858286016120fb565b925050602061267a858286016120fb565b9150509250929050565b7f4e487b7100000000000000000000000000000000000000000000000000000000600052602260045260246000fd5b600060028204905060018216806126cb57607f821691505b6020821081036126de576126dd612684565b5b50919050565b60006060820190506126f960008301866120ba565b612706602083018561229d565b61271360408301846120ba565b949350505050565b7f4f6e6c79206f776e65722063616e207265636f72642073746570730000000000600082015250565b6000612751601b83611f7e565b915061275c8261271b565b602082019050919050565b6000602082019050818103600083015261278081612744565b9050919050565b600060408201905081810360008301526127a18185611fca565b90506127b0602083018461229d565b9392505050565b7f4e487b7100000000000000000000000000000000000000000000000000000000600052601160045260246000fd5b60006127f182612025565b91507fffffffffffffffffffffffffffffffffffffffffffffffffffffffffffffffff8203612823576128226127b7565b5b600182019050919050565b600081519050919050565b600082825260208201905092915050565b60006128558261282e565b61285f8185612839565b935061286f818560208601611f8f565b61287881611fb9565b840191505092915050565b600060808201905061289860008301876120ba565b6128a560208301866120ba565b6128b2604083018561229d565b81810360608301526128c4818461284a565b905095945050505050565b6000815190506128de81611ee4565b92915050565b6000602082840312156128fa576128f9611eae565b5b6000612908848285016128cf565b91505092915050565b600081905092915050565b600061292782611f73565b6129318185612911565b9350612941818560208601611f8f565b80840191505092915050565b6000612959828561291c565b9150612965828461291c565b91508190509392505050565b60008190508160005260206000209050919050565b60006020601f8301049050919050565b600082821b905092915050565b6000600883026129d37fffffffffffffffffffffffffffffffffffffffffffffffffffffffffffffffff82612996565b6129dd8683612996565b95508019841693508086168417925050509392505050565b6000819050919050565b6000612a1a612a15612a1084612025565b6129f5565b612025565b9050919050565b6000819050919050565b612a34836129ff565b612a48612a4082612a21565b8484546129a3565b825550505050565b600090565b612a5d612a50565b612a68818484612a2b565b505050565b5b81811015612a8c57612a81600082612a55565b600181019050612a6e565b5050565b601f821115612ad157612aa281612971565b612aab84612986565b81016020851015612aba578190505b612ace612ac685612986565b830182612a6d565b50505b505050565b600082821c905092915050565b6000612af460001984600802612ad6565b1980831691505092915050565b6000612b0d8383612ae3565b9150826002028217905092915050565b612b2682611f73565b67ffffffffffffffff811115612b3f57612b3e61233d565b5b612b4982546126b3565b612b54828285612a90565b600060209050601f831160018114612b875760008415612b75578287015190505b612b7f8582612b01565b865550612be7565b601f198416612b9586612971565b60005b82811015612bbd57848901518255600182019150602085019450602081019050612b98565b86831015612bda5784890151612bd6601f891682612ae3565b8355505b6001600288020188555050505b505050505050565b6000604082019050612c0460008301856120ba565b612c11602083018461229d565b9392505050565b6000604082019050612c2d60008301856120ba565b612c3a6020830184612206565b9392505050565b7f4e487b7100000000000000000000000000000000000000000000000000000000600052601260045260246000fdfea264697066735822122016aa64256a4eee2e184e54e6833581b078208ee5be8d98342f2db3693db3f6f064736f6c63430008140033",
  "linkReferences": {},
  "deployedLinkReferences": {}
}